{
  "_format": "hh-sol-artifact-1",
  "contractName": "Dacospace",
  "sourceName": "contracts/Dacospace.sol",
  "abi": [
    {
      "inputs": [],
      "stateMutability": "nonpayable",
      "type": "constructor"
    },
    {
      "anonymous": false,
      "inputs": [
        {
          "indexed": false,
          "internalType": "address",
          "name": "buyer",
          "type": "address"
        },
        {
          "indexed": false,
          "internalType": "uint256",
          "name": "orderId",
          "type": "uint256"
        },
        {
          "indexed": false,
          "internalType": "uint256",
          "name": "courseId",
          "type": "uint256"
        }
      ],
      "name": "Buy",
      "type": "event"
    },
    {
      "anonymous": false,
      "inputs": [
        {
          "indexed": false,
          "internalType": "string",
          "name": "title",
          "type": "string"
        },
        {
          "indexed": false,
          "internalType": "uint256",
          "name": "cost",
          "type": "uint256"
        },
        {
          "indexed": false,
          "internalType": "uint256",
          "name": "sold",
          "type": "uint256"
        }
      ],
      "name": "List",
      "type": "event"
    },
    {
      "inputs": [
        {
          "internalType": "uint256",
          "name": "_id",
          "type": "uint256"
        }
      ],
      "name": "buy",
      "outputs": [],
      "stateMutability": "payable",
      "type": "function"
    },
    {
      "inputs": [
        {
          "internalType": "uint256",
          "name": "",
          "type": "uint256"
        }
      ],
      "name": "courses",
      "outputs": [
        {
          "internalType": "uint256",
          "name": "id",
          "type": "uint256"
        },
        {
          "internalType": "string",
          "name": "title",
          "type": "string"
        },
        {
          "internalType": "string",
          "name": "description",
          "type": "string"
        },
        {
          "internalType": "string",
          "name": "image",
          "type": "string"
        },
        {
          "internalType": "string",
          "name": "category",
          "type": "string"
        },
        {
          "internalType": "uint256",
          "name": "cost",
          "type": "uint256"
        },
        {
          "internalType": "uint256",
          "name": "rating",
          "type": "uint256"
        },
        {
          "internalType": "uint256",
          "name": "sold",
          "type": "uint256"
        }
      ],
      "stateMutability": "view",
      "type": "function"
    },
    {
      "inputs": [
        {
          "internalType": "uint256",
          "name": "_id",
          "type": "uint256"
        },
        {
          "internalType": "string",
          "name": "_title",
          "type": "string"
        },
        {
          "internalType": "string",
          "name": "_description",
          "type": "string"
        },
        {
          "internalType": "string",
          "name": "_image",
          "type": "string"
        },
        {
          "internalType": "string",
          "name": "_category",
          "type": "string"
        },
        {
          "internalType": "uint256",
          "name": "_cost",
          "type": "uint256"
        },
        {
          "internalType": "uint256",
          "name": "_rating",
          "type": "uint256"
        },
        {
          "internalType": "uint256",
          "name": "_sold",
          "type": "uint256"
        },
        {
          "internalType": "string[]",
          "name": "_dailyContents",
          "type": "string[]"
        }
      ],
      "name": "list",
      "outputs": [],
      "stateMutability": "nonpayable",
      "type": "function"
    },
    {
      "inputs": [
        {
          "internalType": "address",
          "name": "",
          "type": "address"
        }
      ],
      "name": "orderCount",
      "outputs": [
        {
          "internalType": "uint256",
          "name": "",
          "type": "uint256"
        }
      ],
      "stateMutability": "view",
      "type": "function"
    },
    {
      "inputs": [
        {
          "internalType": "address",
          "name": "",
          "type": "address"
        },
        {
          "internalType": "uint256",
          "name": "",
          "type": "uint256"
        }
      ],
      "name": "orders",
      "outputs": [
        {
          "internalType": "uint256",
          "name": "time",
          "type": "uint256"
        },
        {
          "components": [
            {
              "internalType": "uint256",
              "name": "id",
              "type": "uint256"
            },
            {
              "internalType": "string",
              "name": "title",
              "type": "string"
            },
            {
              "internalType": "string",
              "name": "description",
              "type": "string"
            },
            {
              "internalType": "string",
              "name": "image",
              "type": "string"
            },
            {
              "internalType": "string",
              "name": "category",
              "type": "string"
            },
            {
              "internalType": "uint256",
              "name": "cost",
              "type": "uint256"
            },
            {
              "internalType": "uint256",
              "name": "rating",
              "type": "uint256"
            },
            {
              "internalType": "uint256",
              "name": "sold",
              "type": "uint256"
            },
            {
              "internalType": "string[]",
              "name": "dailyContents",
              "type": "string[]"
            }
          ],
          "internalType": "struct Dacospace.Course",
          "name": "course",
          "type": "tuple"
        }
      ],
      "stateMutability": "view",
      "type": "function"
    },
    {
      "inputs": [],
      "name": "owner",
      "outputs": [
        {
          "internalType": "address",
          "name": "",
          "type": "address"
        }
      ],
      "stateMutability": "view",
      "type": "function"
    },
    {
      "inputs": [],
      "name": "withdraw",
      "outputs": [],
      "stateMutability": "nonpayable",
      "type": "function"
    }
  ],
  "bytecode": "0x608060405234801561001057600080fd5b50336000806101000a81548173ffffffffffffffffffffffffffffffffffffffff021916908373ffffffffffffffffffffffffffffffffffffffff160217905550611f9e806100606000396000f3fe6080604052600436106100705760003560e01c8063793b8c6d1161004e578063793b8c6d146100f25780638da5cb5b1461013057806396f979d21461015b578063d96a094a1461019f57610070565b80633ccfd60b14610075578063704fea221461008c578063713d856b146100b5575b600080fd5b34801561008157600080fd5b5061008a6101bb565b005b34801561009857600080fd5b506100b360048036038101906100ae919061143f565b6102e3565b005b3480156100c157600080fd5b506100dc60048036038101906100d791906115f3565b6104b1565b6040516100e9919061162f565b60405180910390f35b3480156100fe57600080fd5b506101196004803603810190610114919061164a565b6104c9565b6040516101279291906118bb565b60405180910390f35b34801561013c57600080fd5b5061014561084e565b60405161015291906118fa565b60405180910390f35b34801561016757600080fd5b50610182600480360381019061017d9190611915565b610872565b60405161019698979695949392919061198c565b60405180910390f35b6101b960048036038101906101b49190611915565b610ada565b005b60008054906101000a900473ffffffffffffffffffffffffffffffffffffffff1673ffffffffffffffffffffffffffffffffffffffff163373ffffffffffffffffffffffffffffffffffffffff1614610249576040517f08c379a000000000000000000000000000000000000000000000000000000000815260040161024090611a72565b60405180910390fd5b60008060009054906101000a900473ffffffffffffffffffffffffffffffffffffffff1673ffffffffffffffffffffffffffffffffffffffff164760405161029090611ac3565b60006040518083038185875af1925050503d80600081146102cd576040519150601f19603f3d011682016040523d82523d6000602084013e6102d2565b606091505b50509050806102e057600080fd5b50565b60008054906101000a900473ffffffffffffffffffffffffffffffffffffffff1673ffffffffffffffffffffffffffffffffffffffff163373ffffffffffffffffffffffffffffffffffffffff1614610371576040517f08c379a000000000000000000000000000000000000000000000000000000000815260040161036890611a72565b60405180910390fd5b60006040518061012001604052808b81526020018a815260200189815260200188815260200187815260200186815260200185815260200184815260200183815250905080600160008c81526020019081526020016000206000820151816000015560208201518160010190816103e89190611ce4565b5060408201518160020190816103fe9190611ce4565b5060608201518160030190816104149190611ce4565b50608082015181600401908161042a9190611ce4565b5060a0820151816005015560c0820151816006015560e082015181600701556101008201518160080190805190602001906104669291906110ef565b509050507ffdbe2a012c10ec01592653978eaa09b5ca60b143a0e617505b2ebcbd911ec5b889868560405161049d93929190611db6565b60405180910390a150505050505050505050565b60026020528060005260406000206000915090505481565b60036020528160005260406000206020528060005260406000206000915091505080600001549080600101604051806101200160405290816000820154815260200160018201805461051a90611b07565b80601f016020809104026020016040519081016040528092919081815260200182805461054690611b07565b80156105935780601f1061056857610100808354040283529160200191610593565b820191906000526020600020905b81548152906001019060200180831161057657829003601f168201915b505050505081526020016002820180546105ac90611b07565b80601f01602080910402602001604051908101604052809291908181526020018280546105d890611b07565b80156106255780601f106105fa57610100808354040283529160200191610625565b820191906000526020600020905b81548152906001019060200180831161060857829003601f168201915b5050505050815260200160038201805461063e90611b07565b80601f016020809104026020016040519081016040528092919081815260200182805461066a90611b07565b80156106b75780601f1061068c576101008083540402835291602001916106b7565b820191906000526020600020905b81548152906001019060200180831161069a57829003601f168201915b505050505081526020016004820180546106d090611b07565b80601f01602080910402602001604051908101604052809291908181526020018280546106fc90611b07565b80156107495780601f1061071e57610100808354040283529160200191610749565b820191906000526020600020905b81548152906001019060200180831161072c57829003601f168201915b5050505050815260200160058201548152602001600682015481526020016007820154815260200160088201805480602002602001604051908101604052809291908181526020016000905b828210156108415783829060005260206000200180546107b490611b07565b80601f01602080910402602001604051908101604052809291908181526020018280546107e090611b07565b801561082d5780601f106108025761010080835404028352916020019161082d565b820191906000526020600020905b81548152906001019060200180831161081057829003601f168201915b505050505081526020019060010190610795565b5050505081525050905082565b60008054906101000a900473ffffffffffffffffffffffffffffffffffffffff1681565b600160205280600052604060002060009150905080600001549080600101805461089b90611b07565b80601f01602080910402602001604051908101604052809291908181526020018280546108c790611b07565b80156109145780601f106108e957610100808354040283529160200191610914565b820191906000526020600020905b8154815290600101906020018083116108f757829003601f168201915b50505050509080600201805461092990611b07565b80601f016020809104026020016040519081016040528092919081815260200182805461095590611b07565b80156109a25780601f10610977576101008083540402835291602001916109a2565b820191906000526020600020905b81548152906001019060200180831161098557829003601f168201915b5050505050908060030180546109b790611b07565b80601f01602080910402602001604051908101604052809291908181526020018280546109e390611b07565b8015610a305780601f10610a0557610100808354040283529160200191610a30565b820191906000526020600020905b815481529060010190602001808311610a1357829003601f168201915b505050505090806004018054610a4590611b07565b80601f0160208091040260200160405190810160405280929190818152602001828054610a7190611b07565b8015610abe5780601f10610a9357610100808354040283529160200191610abe565b820191906000526020600020905b815481529060010190602001808311610aa157829003601f168201915b5050505050908060050154908060060154908060070154905088565b6000600160008381526020019081526020016000206040518061012001604052908160008201548152602001600182018054610b1590611b07565b80601f0160208091040260200160405190810160405280929190818152602001828054610b4190611b07565b8015610b8e5780601f10610b6357610100808354040283529160200191610b8e565b820191906000526020600020905b815481529060010190602001808311610b7157829003601f168201915b50505050508152602001600282018054610ba790611b07565b80601f0160208091040260200160405190810160405280929190818152602001828054610bd390611b07565b8015610c205780601f10610bf557610100808354040283529160200191610c20565b820191906000526020600020905b815481529060010190602001808311610c0357829003601f168201915b50505050508152602001600382018054610c3990611b07565b80601f0160208091040260200160405190810160405280929190818152602001828054610c6590611b07565b8015610cb25780601f10610c8757610100808354040283529160200191610cb2565b820191906000526020600020905b815481529060010190602001808311610c9557829003601f168201915b50505050508152602001600482018054610ccb90611b07565b80601f0160208091040260200160405190810160405280929190818152602001828054610cf790611b07565b8015610d445780601f10610d1957610100808354040283529160200191610d44565b820191906000526020600020905b815481529060010190602001808311610d2757829003601f168201915b5050505050815260200160058201548152602001600682015481526020016007820154815260200160088201805480602002602001604051908101604052809291908181526020016000905b82821015610e3c578382906000526020600020018054610daf90611b07565b80601f0160208091040260200160405190810160405280929190818152602001828054610ddb90611b07565b8015610e285780601f10610dfd57610100808354040283529160200191610e28565b820191906000526020600020905b815481529060010190602001808311610e0b57829003601f168201915b505050505081526020019060010190610d90565b505050508152505090508060a00151341015610e8d576040517f08c379a0000000000000000000000000000000000000000000000000000000008152600401610e8490611e66565b60405180910390fd5b60006040518060400160405280428152602001838152509050600260003373ffffffffffffffffffffffffffffffffffffffff1673ffffffffffffffffffffffffffffffffffffffff1681526020019081526020016000206000815480929190610ef690611eb5565b919050555080600360003373ffffffffffffffffffffffffffffffffffffffff1673ffffffffffffffffffffffffffffffffffffffff1681526020019081526020016000206000600260003373ffffffffffffffffffffffffffffffffffffffff1673ffffffffffffffffffffffffffffffffffffffff16815260200190815260200160002054815260200190815260200160002060008201518160000155602082015181600101600082015181600001556020820151816001019081610fbd9190611ce4565b506040820151816002019081610fd39190611ce4565b506060820151816003019081610fe99190611ce4565b506080820151816004019081610fff9190611ce4565b5060a0820151816005015560c0820151816006015560e0820151816007015561010082015181600801908051906020019061103b9291906110ef565b50505090505060018260e001516110529190611efd565b60016000858152602001908152602001600020600701819055507f1cbc5ab135991bd2b6a4b034a04aa2aa086dac1371cb9b16b8b5e2ed6b036bed33600260003373ffffffffffffffffffffffffffffffffffffffff1673ffffffffffffffffffffffffffffffffffffffff1681526020019081526020016000205484600001516040516110e293929190611f31565b60405180910390a1505050565b828054828255906000526020600020908101928215611137579160200282015b828111156111365782518290816111269190611ce4565b509160200191906001019061110f565b5b5090506111449190611148565b5090565b5b80821115611168576000818161115f919061116c565b50600101611149565b5090565b50805461117890611b07565b6000825580601f1061118a57506111a9565b601f0160209004906000526020600020908101906111a891906111ac565b5b50565b5b808211156111c55760008160009055506001016111ad565b5090565b6000604051905090565b600080fd5b600080fd5b6000819050919050565b6111f0816111dd565b81146111fb57600080fd5b50565b60008135905061120d816111e7565b92915050565b600080fd5b600080fd5b6000601f19601f8301169050919050565b7f4e487b7100000000000000000000000000000000000000000000000000000000600052604160045260246000fd5b6112668261121d565b810181811067ffffffffffffffff821117156112855761128461122e565b5b80604052505050565b60006112986111c9565b90506112a4828261125d565b919050565b600067ffffffffffffffff8211156112c4576112c361122e565b5b6112cd8261121d565b9050602081019050919050565b82818337600083830152505050565b60006112fc6112f7846112a9565b61128e565b90508281526020810184848401111561131857611317611218565b5b6113238482856112da565b509392505050565b600082601f8301126113405761133f611213565b5b81356113508482602086016112e9565b91505092915050565b600067ffffffffffffffff8211156113745761137361122e565b5b602082029050602081019050919050565b600080fd5b600061139d61139884611359565b61128e565b905080838252602082019050602084028301858111156113c0576113bf611385565b5b835b8181101561140757803567ffffffffffffffff8111156113e5576113e4611213565b5b8086016113f2898261132b565b855260208501945050506020810190506113c2565b5050509392505050565b600082601f83011261142657611425611213565b5b813561143684826020860161138a565b91505092915050565b60008060008060008060008060006101208a8c031215611462576114616111d3565b5b60006114708c828d016111fe565b99505060208a013567ffffffffffffffff811115611491576114906111d8565b5b61149d8c828d0161132b565b98505060408a013567ffffffffffffffff8111156114be576114bd6111d8565b5b6114ca8c828d0161132b565b97505060608a013567ffffffffffffffff8111156114eb576114ea6111d8565b5b6114f78c828d0161132b565b96505060808a013567ffffffffffffffff811115611518576115176111d8565b5b6115248c828d0161132b565b95505060a06115358c828d016111fe565b94505060c06115468c828d016111fe565b93505060e06115578c828d016111fe565b9250506101008a013567ffffffffffffffff811115611579576115786111d8565b5b6115858c828d01611411565b9150509295985092959850929598565b600073ffffffffffffffffffffffffffffffffffffffff82169050919050565b60006115c082611595565b9050919050565b6115d0816115b5565b81146115db57600080fd5b50565b6000813590506115ed816115c7565b92915050565b600060208284031215611609576116086111d3565b5b6000611617848285016115de565b91505092915050565b611629816111dd565b82525050565b60006020820190506116446000830184611620565b92915050565b60008060408385031215611661576116606111d3565b5b600061166f858286016115de565b9250506020611680858286016111fe565b9150509250929050565b611693816111dd565b82525050565b600081519050919050565b600082825260208201905092915050565b60005b838110156116d35780820151818401526020810190506116b8565b60008484015250505050565b60006116ea82611699565b6116f481856116a4565b93506117048185602086016116b5565b61170d8161121d565b840191505092915050565b600081519050919050565b600082825260208201905092915050565b6000819050602082019050919050565b600061175083836116df565b905092915050565b6000602082019050919050565b600061177082611718565b61177a8185611723565b93508360208202850161178c85611734565b8060005b858110156117c857848403895281516117a98582611744565b94506117b483611758565b925060208a01995050600181019050611790565b50829750879550505050505092915050565b6000610120830160008301516117f3600086018261168a565b506020830151848203602086015261180b82826116df565b9150506040830151848203604086015261182582826116df565b9150506060830151848203606086015261183f82826116df565b9150506080830151848203608086015261185982826116df565b91505060a083015161186e60a086018261168a565b5060c083015161188160c086018261168a565b5060e083015161189460e086018261168a565b506101008301518482036101008601526118ae8282611765565b9150508091505092915050565b60006040820190506118d06000830185611620565b81810360208301526118e281846117da565b90509392505050565b6118f4816115b5565b82525050565b600060208201905061190f60008301846118eb565b92915050565b60006020828403121561192b5761192a6111d3565b5b6000611939848285016111fe565b91505092915050565b600082825260208201905092915050565b600061195e82611699565b6119688185611942565b93506119788185602086016116b5565b6119818161121d565b840191505092915050565b6000610100820190506119a2600083018b611620565b81810360208301526119b4818a611953565b905081810360408301526119c88189611953565b905081810360608301526119dc8188611953565b905081810360808301526119f08187611953565b90506119ff60a0830186611620565b611a0c60c0830185611620565b611a1960e0830184611620565b9998505050505050505050565b7f596f75206d75737420746865206f776e65722100000000000000000000000000600082015250565b6000611a5c601383611942565b9150611a6782611a26565b602082019050919050565b60006020820190508181036000830152611a8b81611a4f565b9050919050565b600081905092915050565b50565b6000611aad600083611a92565b9150611ab882611a9d565b600082019050919050565b6000611ace82611aa0565b9150819050919050565b7f4e487b7100000000000000000000000000000000000000000000000000000000600052602260045260246000fd5b60006002820490506001821680611b1f57607f821691505b602082108103611b3257611b31611ad8565b5b50919050565b60008190508160005260206000209050919050565b60006020601f8301049050919050565b600082821b905092915050565b600060088302611b9a7fffffffffffffffffffffffffffffffffffffffffffffffffffffffffffffffff82611b5d565b611ba48683611b5d565b95508019841693508086168417925050509392505050565b6000819050919050565b6000611be1611bdc611bd7846111dd565b611bbc565b6111dd565b9050919050565b6000819050919050565b611bfb83611bc6565b611c0f611c0782611be8565b848454611b6a565b825550505050565b600090565b611c24611c17565b611c2f818484611bf2565b505050565b5b81811015611c5357611c48600082611c1c565b600181019050611c35565b5050565b601f821115611c9857611c6981611b38565b611c7284611b4d565b81016020851015611c81578190505b611c95611c8d85611b4d565b830182611c34565b50505b505050565b600082821c905092915050565b6000611cbb60001984600802611c9d565b1980831691505092915050565b6000611cd48383611caa565b9150826002028217905092915050565b611ced82611699565b67ffffffffffffffff811115611d0657611d0561122e565b5b611d108254611b07565b611d1b828285611c57565b600060209050601f831160018114611d4e5760008415611d3c578287015190505b611d468582611cc8565b865550611dae565b601f198416611d5c86611b38565b60005b82811015611d8457848901518255600182019150602085019450602081019050611d5f565b86831015611da15784890151611d9d601f891682611caa565b8355505b6001600288020188555050505b505050505050565b60006060820190508181036000830152611dd08186611953565b9050611ddf6020830185611620565b611dec6040830184611620565b949350505050565b7f596f75722062616c616e6365206d75737420626967676572207468616e20636f60008201527f7374210000000000000000000000000000000000000000000000000000000000602082015250565b6000611e50602383611942565b9150611e5b82611df4565b604082019050919050565b60006020820190508181036000830152611e7f81611e43565b9050919050565b7f4e487b7100000000000000000000000000000000000000000000000000000000600052601160045260246000fd5b6000611ec0826111dd565b91507fffffffffffffffffffffffffffffffffffffffffffffffffffffffffffffffff8203611ef257611ef1611e86565b5b600182019050919050565b6000611f08826111dd565b9150611f13836111dd565b9250828201905080821115611f2b57611f2a611e86565b5b92915050565b6000606082019050611f4660008301866118eb565b611f536020830185611620565b611f606040830184611620565b94935050505056fea2646970667358221220c889108febdabf6fb8a6bb8581a2474b4a8dc3d550259827f963dad9886d472564736f6c63430008180033",
  "linkReferences": {},
  "deployedLinkReferences": {}
}